:100000000C94CC060C9413070C9413070C94130750
:100010000C9413070C9413070C9413070C941307F8
:100020000C9413070C9413070C94EF210C94C22228
:100030000C94FD180C9413070C9413070C941307DD
:100040000C9413070C9413070C9413070C941307C8
:100050000C9413070C945E190C9413070C9413075B
:100060000C9413070C9413070C9413070C941307A8
:100070000C9413070C9413070C9413070C94130798
:100080000C9413070C9413070C9413070C94130788
:100090000C9413070C9413070C9413070C94130778
:1000A0000C9413070C9413070C9413075300380097
:1000B00025022D0029001E001F0020002100220023
:1000C000230024002500260027002D002E002A00F2
:1000D0004A0000004B002B0014001A000800150015
:1000E00017001C0018000C00120013002F00300035
:1000F000310046000000220000002E02E000040053
:100100001600070009000A000B000D000E000F008A
:100110003300340028004B004D0000004E0000006A
:10012000E1001D001B000600190005001100100071
:10013000360037003800E50052004E0049004C0000
:1001400028000000E000E300E200000000000000E2
:100150002C000000E6000151E400500051004F0067
:10016000010001000100010035023A003B003C00A3
:100170003D003E003F00400041004200430044007B
:1001800045000100007001000100010001000100B4
:100190000100010001000100010001000100010057
:1001A0000100010001000100010001000100010047
:1001B0000100010001000100010001000100010037
:1001C0000100010001000100010001000100010027
:1001D0000100000001000100010001000100010018
:1001E0000100010001000100010001000100010007
:1001F00001000100010000003900010001000000C1
:1002000000000000010000000100010001000100E9
:1002100001000100010001000100010001000100D6
:1002200001000100010001000100010001000100C6
:1002300001000100010001000100010001000100B6
:1002400001000100010001000100010001000100A6
:100250000100010001000100010001000100010096
:100260000100010001000100010001000100010086
:100270000100010001000100010001000100010076
:100280000100010001000000010001000100010067
:100290000100010001000100010001000100010056
:1002A0000100010001000100010000000100010047
:1002B000010000000000000001000000010001003A
:1002C0000100010001000100010001000100010026
:1002D0000100010001000100010001000100010016
:1002E0000100010001000100010001000100010006
:1002F00001000100010001000100010001000100F6
:1003000001000100010001000100010001000100E5
:1003100001000100010001000100010001000100D5
:1003200001000100010001000100010001000100C5
:1003300001000100010001000100000001000100B6
:1003400001000100010001000100010001000100A5
:100350000100010001000100010001000100000096
:100360000100010001000000000000000100000089
:100370000100010001000100010001000100010075
:100380000100010001000100010001000100010065
:100390000100010001000100010001000100010055
:1003A0000100010001000100010001000100010045
:1003B0000100010001000100010001000100010035
:1003C0000100010001000100010001000100010025
:1003D0000100010001000100010001000100010015
:1003E0000100010001000100010001000100000006
:1003F00001000100010001000100010001000100F5
:1004000001000100010001000100010001000100E4
:1004100001000000010001000100000000000000D8
:1004200001000000010001000100010001000100C5
:1004300001000100010001000100010001000100B4
:1004400001000100010001000100010001000100A4
:100450000100010001000100010001000100010094
:100460000100010001000100010001000100010084
:100470000100010001000100010001000100010074
:100480000100010001000100010001000100010064
:100490000100010001000100010001000100010054
:1004A0000100000001000100010001000100010045
:1004B0000100010001000100010001000100010034
:1004C0000100010001000000010001000100000026
:1004D0000000000001000000010001000100010017
:1004E0000100010001000100010001000100010004
:1004F00001000100010001000100010001000100F4
:1005000001000100010001000100010001000100E3
:1005100001000100010001000100010001000100D3
:1005200001000100010001000100010001000100C3
:1005300001000100010001000100010001000100B3
:1005400001000100010001000100010001000100A3
:100550000100010001000000010001000100010094
:100560000100010001000100010001000100010083
:100570000100010001000100010000000100010074
:100580000100000000000000010000000100010067
:100590000100010001000100010001000100010053
:1005A0000100010001000100010001000100010043
:1005B0000100010001000100010001000100010033
:1005C0000100010001000100010001000100010023
:1005D0000100010001000100010001000100010013
:1005E0000100010001000100010001000100010003
:1005F00001000100010001000100010001000100F3
:1006000001000100010001000100000001000100E3
:1006100001000100010001000100010001000100D2
:1006200001000100010001000100010001000000C3
:1006300001000100010000000000000001000000B6
:1006400001000100010001000100010001000100A2
:100650000100010001000100010001000100010092
:100660000100010001000100010001000100010082
:100670000100010001000100010001000100010072
:100680000100010001000100010001000100010062
:100690000100010001000100010001000100010052
:1006A0000100010001000100010001000100010042
:1006B0000100010001000100010001000100000033
:1006C0000100010001000100010001000100010022
:1006D0000100010001000100010001000100010012
:1006E0000100000001000100010000000000000006
:1006F00001000000010001000100010001000100F3
:1007000001000100010001000100010001000100E1
:1007100001000100010001000100010001000100D1
:1007200001000100010001000100010001000100C1
:1007300001000100010001000100010001000100B1
:1007400001000100010001000100010001000100A1
:100750000100010001000100010001000100010091
:100760000100010001000100010001000100010081
:100770000100000001000100010001000100010072
:100780000100010001000100010001000100010061
:100790000100010001000000010001000100000053
:1007A0000000000001000000010001000100010044
:1007B0000100010001000100010001000100010031
:1007C0000100010001000100010001000100010021
:1007D0000100010001000100010001000100010011
:1007E0000100010001000100010001000100010001
:1007F00001000100010001000100010001000100F1
:1008000001000100010001000100010001000100E0
:1008100001000100010001000100010001000100D0
:1008200001000100010000000100010001000100C1
:1008300001000100010001000100010001000100B0
:1008400001000100010001000100000001000100A1
:100850000100000000000000010000000100010094
:100860000100010001000100010001000100010080
:100870000100010001000100010001000100010070
:100880000100010001000100010001000100010060
:100890000100010001000100010001000100010050
:1008A0000100010001000100010001000100010040
:1008B0000100010001000100010001000100010030
:1008C0000100010001000100010001000100010020
:1008D0000100010001000100010000000100010011
:1008E0000100010001000100010001000100010000
:1008F00001000100010001000100010001000000F1
:1009000001000100010000000000000001000000E3
:1009100001000100010001000100010001000100CF
:1009200001000100010001000100010001000100BF
:1009300001000100010001000100010001000100AF
:10094000010001000100010001000100010001009F
:10095000010001000100010001000100010001008F
:10096000010001000100010001000100010001007F
:10097000010001000100010001000100010001006F
:100980000100010001000100010001000100000060
:10099000010001000100010001000100010001004F
:1009A000010001000100010001000100010001003F
:1009B0000100000001000100010000000000000033
:1009C0000100000001000100010001000100010020
:1009D000010001000100010001000100010001000F
:1009E00001000100010001000100010001000100FF
:1009F00001000100010001000100010001000100EF
:100A000001000100010001000100010001000100DE
:100A100001000100010001000100010001000100CE
:100A200001000100010001000100010001000100BE
:100A300001000100010001000100010001000100AE
:100A4000010000000100010001000100010001009F
:100A5000010001000100010001000100010001008E
:100A60000100010001000000010001000100000080
:100A70000000000001000000010001000100010071
:100A8000010001000100010001000100010001005E
:100A9000010001000100010001000100010001004E
:100AA000010001000100010001000100010001003E
:100AB000010001000100010001000100010001002E
:100AC000010001000100010001000100010001001E
:100AD000010001000100010001000100010001000E
:100AE00001000100010001000100010001000100FE
:100AF00001000100010000000100010001000100EF
:100B000001000100010001000100010001000100DD
:100B100001000100010001000100000001000100CE
:100B200001000000000000000100000001000100C1
:100B300001000100010001000100010001000100AD
:100B4000010001000100010001000100010001009D
:100B5000010001000100010001000100010001008D
:100B6000010001000100010001000100010001007D
:100B7000010001000100010001000100010001006D
:100B8000010001000100010001000100010001005D
:100B9000010001000100010001000100010001004D
:100BA000010001000100010001000000010001003E
:100BB000010001000100010001000100010001002D
:100BC000010001000100010001000100010000001E
:100BD0000100010001000000000000000100000011
:100BE00001000100010001000100010012036B007F
:100BF0006500790062006F0061007200640000000F
:100C0000160371006D006B006200750069006C00D6
:100C100064006500720000000403090409026D000D
:100C2000040100A0FA0904000001030101000921E8
:100C3000110100012240000705810308000A090490
:100C400001000103010200092111010001224D00F0
:100C50000705820308000A090402000103000000DE
:100C60000921110100012236000705830308000A4B
:100C70000904030001030000000921110100012201
:100C80003900070584032000011201100100000053
:100C900008EDFE606001000102000105010906A1E6
:100CA00001050719E029E71500250195087501815F
:100CB000020508190129059505750191029501752F
:100CC0000391010507190029F71500250195F8750D
:100CD000018102C005010980A101850216010026DB
:100CE00003001A81002A8300751095018100C00558
:100CF0000C0901A1018503160100269C021A0100BE
:100D00002A9C02751095018100C005010902A1010C
:100D10000901A100050919012905150025019505FD
:100D200075018102950175038101050109300931C1
:100D30001581257F95027508810609381581257F63
:100D4000950175088106050C0A38021581257F95E5
:100D50000175088106C0C005010906A10105071932
:100D6000E029E715002501950875018102950175B7
:100D7000088101050819012905950575019102955C
:100D800001750391010507190029FF150026FF00D1
:100D9000950675088100C00011241FBECFEFDAE070
:100DA000DEBFCDBF04B603FE27C0809178029091CC
:100DB0007902A0917A02B0917B028730904BA740D4
:100DC000B04BD1F4109278021092790210927A020C
:100DD00010927B0214BE84B7877F84BF0FB6F8944D
:100DE000A8958091600088618093600010926000F7
:100DF0000FBEE0E0F8E3099511E0A0E0B1E0EEE518
:100E0000FCE402C005900D92AE33B107D9F722E0A1
:100E1000AEE3B1E001C01D92A837B207E1F70E942E
:100E2000451F0C9401260C94000090E080E008958A
:100E30000895089581E00895089581E008950C943F
:100E40001A070E943E112FEF84E39CE0215080405E
:100E50009040E1F700C000000C948119EF92FF92DE
:100E60000F931F93CF93DF938C01FC01E080F180FF
:100E700080919601811140C082818823C1F1C70110
:100E80000E94C316C82F682FC7010E946C16B701B5
:100E90008C2F0E946608EC01B8010E941F0788236E
:100EA00009F44BC0B801CE010E946F0A882309F4EF
:100EB00044C0C531F0E7DF0720F5C23080E7D8072E
:100EC00008F04DC0C115E0E7DE0791F1C130D04711
:100ED000E1F181E08093400180934101C801DF91FD
:100EE000CF911F910F91FF90EF900C941D07C701B8
:100EF0000E949A16C82FCBCFC7010E94C316B70114
:100F0000C8CFCC3380E7D80709F49BC0CD33D04796
:100F100001F7F8018281882309F4BAC010924101D7
:100F20000E942D1990933F0180933E0180E296C06C
:100F3000F801828181110E94210780E0DF91CF9129
:100F40001F910F91FF90EF900895F80182818823FF
:100F5000A1F380913802816080933802EECFF801CE
:100F60008281882309F4BACF0E947E18811102C0C1
:100F70000E9464180E949B1890E090936A028093EC
:100F80006902FE01E350F047809169028160E2311D
:100F9000F10538F4ED5FF94D0C94B12580916902AB
:100FA000826080936902809169020E949F180E946A
:100FB0003E11C3CF809169028460F3CF80916902B2
:100FC0008860EFCF809169028061EBCF80916902E8
:100FD0008062E7CF809169028064E3CF80916902EB
:100FE0008068DFCF809169028C60DBCF80916902DD
:100FF0008E7FD7CF809169028D7FD3CF8091690298
:101000008B7FCFCF80916902877FCBCF80916902A0
:101010008F7EC7CF809169028F7DC3CF8091690297
:101020008F7BBFCF809169028F77BBCF80916902A0
:10103000837FB7CF90916902892F97FB87F98058FA
:10104000B0CFF8018281882361F0109240010E94A4
:101050002D1990933F0180933E0182E00E94A30EE0
:101060006CCF8091400181110FC080913E01909121
:101070003F010E943919883C910530F486E20E94B4
:10108000780D86E20E94540E82E00E94AA0E55CF8F
:101090008091410181110FC080913E0190913F01EB
:1010A0000E943919883C910530F487E20E94780D3E
:1010B00087E20E94540E80E2E8CF0C94BE0A0C94A2
:1010C000C00A0C941C070C9461080895972F70E0D7
:1010D00022E1929F600D711D1124FB019AE5899F09
:1010E000E00DF11D1124EE0FFF1FE455FF4F859118
:1010F00094910895FC01EE0FFF1FE451F44F859188
:10110000949108950E9466080E94F3099C0181153C
:1011100040E4940708F097C0211580E3380708F0F1
:10112000FAC0203E310508F074C0203C310508F0BB
:10113000E5C0283A310588F4253A310508F0E2C0C7
:101140002130310509F477C0C9010497813A91052E
:1011500008F471C030E020E06EC0C901885A9109DE
:101160004597C0F7283A310509F4FEC0293A310500
:1011700009F4FDC02A3A310509F4FCC02B3A3105C7
:1011800009F4FBC02C3A310509F4FAC02B3B3105B8
:1011900009F4F9C02C3B310509F4F8C02D3A3105AA
:1011A00009F4F7C0203B310509F4F6C02E3A3105A9
:1011B00009F4F5C02F3A310509F4F4C0213B31059B
:1011C00009F4F3C0223B310509F4F2C0233B310599
:1011D00009F4F1C0243B310509F4F0C0253B310589
:1011E00009F4EFC0263B310509F4EEC0273B310579
:1011F00009F4EDC0283B310509F4ECC0293B310569
:1012000009F4EBC02A3B310509F4EAC020E034E4DC
:1012100012C0211590E2390780F42F3F310509F003
:1012200050F4283E310538F0C901805F91093065DE
:10123000409708F08FCFC9010895C9019F700E949F
:101240007A089C01F8CF8115944508F041C021151A
:1012500083E5380708F06AC0211592E5390738F5AB
:10126000211541E5340708F05CC0211580E53807F9
:1012700008F454C0C90134E0969587953A95E1F792
:101280008370422F46954695437090E2499FA00196
:101290001124582B822F837021E030E002C0220FEE
:1012A000331F8A95E2F7242B352B3C68C4CFC90144
:1012B0008370992741E050E002C0440F551F8A9582
:1012C000E2F72695269580E2289F90011124EBCF26
:1012D000211596E5390748F4922F882721153545C1
:1012E000C8F59C01246F306AA6CFC90190563F70A3
:1012F0008115904108F02ECF30629DCFC901805CEE
:1013000091099DCF253A310549F1263A310549F534
:1013100022E830E490CF3327306C8DCF3F70306AB5
:101320008ACF322F2227216F306A85CFC90183707F
:10133000992741E050E002C0440F551F8A95E2F71B
:101340002695269580E2289F90011124242B352B89
:101350003A6871CF88279F719C01CECF21E830E495
:101360006ACF23E830E467CF22EE34E464CF29EE7D
:1013700034E461CF2AEE34E45ECF25EB34E45BCF76
:1013800026EB34E458CF23EB34E455CF24EB34E49C
:1013900052CF27EB34E44FCF2CEC34E44CCF2DEC80
:1013A00034E449CF23E835E446CF2AE835E443CF97
:1013B00022E935E440CF24E935E43DCF21E236E4AB
:1013C0003ACF23E236E437CF24E236E434CF25E2C5
:1013D00036E431CF26E236E42ECF27E236E42BCFB7
:1013E0002AE236E428CF803E910581F1C8F48133AA
:1013F000910509F462C048F48932910509F456C098
:101400008A32910509F460C0089589339105B9F0D5
:1014100082389105A1F08533910509F440C0089503
:10142000863E910561F138F4823E9105B1F0833E2C
:101430009105E1F00895873E910551F108952091BD
:1014400069022370D9F080EE90E00895209169023E
:1014500020FF14C089E390E008952091690222FFE3
:101460000DC024FD09C083EE90E00895209169022B
:1014700022FD31C024FF02C090E080E00895209159
:10148000690223FFFBCF24FDF7CF87EE90E008959C
:101490002091690223FFEECF86EE90E0089520911F
:1014A000690225FFEBCF89E290E00895209169025F
:1014B00025FFE4CF85E390E008952091690226FF9F
:1014C000DDCF8AE290E008952091690226FFD6CF11
:1014D00081E390E0089582EE90E0089508950F93DF
:1014E0001F93CF938C01FB018281811106C0C1E063
:1014F0008C2FCF911F910F910895C0914F01C11171
:1015000025C00531104799F70E946E0A81E080934B
:101510004F010E942D1990934E0180934D0110921E
:101520004201109244011092430110924601109220
:101530004501109248011092470110924A01109201
:10154000490110924C0110924B01D2CF80914D0174
:1015500090914E010E943919883C910540F6809186
:101560004201E82FF0E0EE0FFF1FED5BFE4F11830D
:1015700000838F5F80934201C0E0BACF0C941807BC
:101580000C94190785B7806885BF85B7806885BFCB
:10159000A5E2B1E061E070E08D91E82FE295EF7097
:1015A000F0E041A18F709B0101C0220F8A95EAF7FC
:1015B000922F9095942391A382A1822B82A381E004
:1015C000AA32B80749F7A3E1B1E061E070E08D917C
:1015D000E82FE295EF70F0E041A18F709B0101C010
:1015E000220F8A95EAF7922F9095942391A382A1D6
:1015F000822B82A381E0A532B80749F7E4E6F1E047
:10160000A0E5B1E088E791E0119211921192119258
:101610001D921D921D921D928E179F07A9F70C9483
:101620005D082F923F924F925F926F927F928F92BE
:101630009F92AF92BF92CF92DF92EF92FF920F9361
:101640001F93CF93DF93CDB7DEB72B970FB6F894E8
:10165000DEBF0FBECDBF80E5282E81E0382E05E22B
:1016600011E01E830D8338862F82C12CD12C760188
:10167000C394AF81B8858D909D90AD90BD90B88793
:10168000AF83FD011292129212921292FB87EA87A7
:10169000AD81BE818D91BE83AD83E82FE295EF7061
:1016A000F0E091A18F7001E010E002C0000F111F67
:1016B0008A95E2F71A830983802F892B81A382A15F
:1016C00000950987802382A310EA1A95F1F723E198
:1016D00031E03C832B8390E080E0AB81BC817D9046
:1016E000BC83AB83272D22952F7030E0D9019096D3
:1016F0005C90AA85BB854D915D916D917C91272D64
:101700002F7001E010E002C0000F111F2A95E2F7D0
:101710009801252109F07AC097018601082E04C09E
:10172000000F111F221F331F0A94D2F7280139011D
:101730004429552966297729AA85BB854D935D9350
:101740006D937C93139701968231910531F681A1B7
:101750001985182311A382A1B9818B2B82A3EA8555
:10176000FB8580819181A281B38188169906AA06A2
:10177000BB0649F0F1E0F09378010E942D19909397
:101780007A01809379010F8118850456114009F080
:1017900070CF809178018823E9F080917901909150
:1017A0007A010E9439190697A8F024E631E0F10188
:1017B00081919191A191B1911F01F901819391932F
:1017C000A193B1939F01F4E62F16F1E03F0679F75C
:1017D000109278010E945F0881E02B960FB6F89472
:1017E000DEBF0FBECDBFDF91CF911F910F91FF9054
:1017F000EF90DF90CF90BF90AF909F908F907F90B1
:101800006F905F904F903F902F900895412C512CF6
:1018100032018ECFCF93DF9300D000D0CDB7DEB7AB
:1018200094E0899FF0011124EC59FE4F8081918151
:10183000A281B381BC01CD010F900F900F900F904A
:10184000DF91CF91089508959093800180937F0157
:101850000895E0917F01F0918001309721F001908F
:10186000F081E02D099480E00895E0917F01F091EE
:101870008001309721F00280F381E02D09940895D2
:10188000E0917F01F0918001309721F00480F58193
:10189000E02D0994089520917D0130917E01281753
:1018A000390771F090937E0180937D01E0917F0173
:1018B000F0918001309721F00680F781E02D0994A6
:1018C000089520917B0130917C012817390771F030
:1018D00090937C0180937B01E0917F01F0918001E6
:1018E000309721F00084F185E02D09940895089542
:1018F0000C94770C0E9424190E94C20A0C94ED19D2
:101900004F925F926F927F929F92AF92BF92CF92CF
:10191000DF92EF92FF920F931F93CF93DF9300D04C
:1019200000D00F92CDB7DEB70E94110B22E8A22E95
:1019300021E0B22E10E000E0902E802F0E940A0CD1
:101940006B017C01F50141905190619071905F01B4
:101950004C145D046E047F0409F475C08091380254
:1019600081FD0E94230C90E080E04C245D246E24D5
:101970007F24B301A201082E04C076956795579580
:1019800047950A94D2F740FF59C089839A82412C27
:10199000512C3201439404C0440C551C661C771C26
:1019A0008A95D2F7C420D520E620F72081E0CD2803
:1019B000CE28CF2809F480E08B830E942D19816006
:1019C000782F9D838C8349815A816B818D810E9400
:1019D0004F0D000F111F000F111FF801EE57FE4FA2
:1019E00080819181A281B38184259525A625B72583
:1019F00080839183A283B3830E949A1C0E94290C46
:101A0000909181018917B1F10E94290C8093810185
:101A10000F900F900F900F900F90DF91CF911F912B
:101A20000F91FF90EF90DF90CF90BF90AF909F907D
:101A30007F906F905F904F900C9463080196823175
:101A4000910509F096CF0F5F1F4F0530110509F082
:101A500073CF8FEF89838A831B820E942D19816047
:101A6000782F9D838C8349815A816B818D810E945F
:101A70004F0DC2CF0F900F900F900F900F90DF91EE
:101A8000CF911F910F91FF90EF90DF90CF90BF907B
:101A9000AF909F907F906F905F904F900895CF93FD
:101AA000DF93CDB7DEB72B970FB6F894DEBF0FBE2E
:101AB000CDBF4F83588769877A878B871E8285E0E1
:101AC000FE013796DE01119601900D928A95E1F79D
:101AD00049815A816B817C818D819E812B960FB6C5
:101AE000F894DEBF0FBECDBFDF91CF910C94C6132B
:101AF000882309F4D8C0823871F40E94290C81FD32
:101B0000D2C089E30E946B170E94351889E30E94B6
:101B1000A8170C943518833859F40E94290C80FDBD
:101B2000C2C083E50E946B170E94351883E5EFCF92
:101B3000843859F40E94290C82FDB5C087E40E94C4
:101B40006B170E94351887E4E2CF9CEF980F913A0B
:101B500018F40E946B17DDCF90E2980F983050F484
:101B6000877091E001C0990F8A95EAF7892F0E944A
:101B7000EC17CFCF9BE5980F933070F4853A31F096
:101B8000863A39F083E890E00C944B0C81E890E0C1
:101B9000FBCF82E890E0F8CF98E5980F953108F0F8
:101BA00082C0883A09F440C0893A09F440C08A3AB0
:101BB00009F440C08B3A09F440C08C3A09F440C0A3
:101BC0008B3B09F440C08C3B09F440C08D3A09F4CA
:101BD00040C0803B09F440C08E3A09F440C08F3ABF
:101BE00009F440C0813B09F440C0823B09F440C085
:101BF000833B09F440C0843B09F440C0853B09F4B1
:101C000040C0863B09F440C0873B09F440C0883B94
:101C100009F440C0893B09F440C08A3B09F440C044
:101C200090E080E00C94610C82EE90E0FBCF89EEB6
:101C300090E0F8CF8AEE90E0F5CF85EB90E0F2CF20
:101C400086EB90E0EFCF83EB90E0ECCF84EB90E07D
:101C5000E9CF87EB90E0E6CF8CEC90E0E3CF8DEC22
:101C600090E0E0CF83E891E0DDCF8AE891E0DACF41
:101C700082E991E0D7CF84E991E0D4CF81E292E08C
:101C8000D1CF83E292E0CECF84E292E0CBCF85E267
:101C900092E0C8CF86E292E0C5CF87E292E0C2CF61
:101CA0008AE292E0BFCF0895882309F44BC08238BE
:101CB00071F40E94290C81FF45C089E30E946B17D3
:101CC0000E94351889E30E94A8170C9435188338B0
:101CD00059F40E94290C80FF35C083E50E946B17E0
:101CE0000E94351883E5EFCF843859F40E94290CFF
:101CF00082FF28C087E40E946B170E94351887E492
:101D0000E2CF9CEF980F913AF0F290E2980F983062
:101D100050F4877091E001C0990F8A95EAF7892FF6
:101D20000E94F217D2CF9BE5980F933020F490E0F9
:101D300080E00C944B0C885A853120F490E080E0D0
:101D40000C94610C0895882321F00E94EC170C94E8
:101D500035180895882321F00E94F2170C94351845
:101D600008958F929F92AF92BF92DF92EF92FF926F
:101D70000F931F93CF93DF9300D000D00F92CDB776
:101D8000DEB77C016D837983FC01058102950F70BC
:101D9000128111110E940B180E946417D82E8823FB
:101DA00071F01123A1F08D81805E883080F082E097
:101DB0000E944E170E94641791E0D82ED926E9811F
:101DC000E295EF70F0E0EB5EF94D0C94B125D12C6B
:101DD000F6CF09810F70F981F07F11F00295007F35
:101DE0001123B1F0002361F08D81805E883018F0FE
:101DF0002D81211109C0802F0E94EC170E943518F7
:101E00008D810E94780D15C0802F0E94FD17F6CF9E
:101E10008D810E94540E002361F08D81805E883098
:101E200018F03D81311129C0802F0E94F2170E94C5
:101E30003518DD2009F4D3C10E94411780FDCFC1C0
:101E4000F70112820E943B170E948415C7010E946D
:101E500000110E943B170F900F900F900F900F9062
:101E6000DF91CF911F910F91FF90EF90DF90BF9086
:101E7000AF909F908F900C94A615802F0E9403180E
:101E8000D6CF49814F70B42E5981507F503219F00E
:101E9000B29480EFB8228D81882369F0813029F1D6
:101EA000112369F1002359F0F701858180FFA8CF44
:101EB0008F70858304C0112361F0011104C08B2D44
:101EC0000E94A30EB6CF8B2D0130D1F70E941F18B0
:101ED000B0CF011106C00E9422188B2D0E94AA0EBD
:101EE000A8CF013009F4A5CFF6CF112321F0063099
:101EF00008F09FCFE4CF053008F09BCFEECF002352
:101F000061F38D810E94540E94CF898186958695C8
:101F1000837069F0813009F08CCF8D819981937045
:101F2000111102C090E080E00E94610C82CF8D818F
:101F300099819370111102C090E080E00E944B0CD7
:101F400078CF8D81112329F00E94A81B0E948F1C3D
:101F500070CF0E94101CFACF8981837009F05FC096
:101F6000111167CF2D81229526952770220F220F00
:101F70008D818F7090E0B0E0A0E04C015D01022EF9
:101F800004C0880C991CAA1CBB1C0A94D2F7FD81C2
:101F900060E070E0CB01F4FF0FC06FE070E080E024
:101FA00090E004C0660F771F881F991F2A95D2F70B
:101FB000609570958095909529812695269523703A
:101FC0002D832230B1F0233019F19B01AC01282977
:101FD00039294A295B2929833A834B835C833D81D4
:101FE00069817A818B819C813130B1F00E94111519
:101FF00020CF9B01AC01282939294A295B29298353
:102000003A834B835C83CA01B9010E943B1511CF0F
:102010000E941115C501B4010E94E7140ACF8695EC
:10202000112311F089818170882309F402CF2D8159
:10203000229526952770220F220F8D818F7090E0B8
:10204000B0E0A0E04C015D01022E04C0880C991C98
:10205000AA1CBB1C0A94D2F73D8160E070E0CB0162
:1020600034FF0FC06FE070E080E090E004C0660FC6
:10207000771F881F991F2A95D2F7609570958095D4
:10208000909549814695469543704D834230B1F015
:10209000433019F19B01AC01282939294A295B29D0
:1020A00029833A834B835C833D8169817A818B816B
:1020B0009C813130B1F00E941716BBCE9B01AC0160
:1020C000282939294A295B2929833A834B835C8350
:1020D000CA01B9010E944116ACCE0E941716C50173
:1020E000B4010E94ED15A5CE3D81323F09F447C0F1
:1020F00080F4303F79F1313FD9F1832F805E803118
:10210000D0F0112309F456C001117ACE89818F7164
:1021100033C04D81433FD1F1443F99F7112309F476
:102120003FC089818F7189830E94841563E0898112
:102130000E9445177ECE5D815F705D8389818F71BE
:10214000112321F00E9484158D81BACE0E94A6151C
:102150008D81C4CE112341F0053008F06ACE89810B
:102160008F710E94CB1565CE063008F062CEF7CF96
:1021700089818F71112339F00E9484155ACE89818B
:102180008F711123C9F30E94A61553CE112329F094
:1021900089818F710E946F154CCE0E94651549CEC2
:1021A00081E00E944E17023008F443CE82E00E9484
:1021B0004E173FCE0111A5CE89818F71E4CF4981A1
:1021C0004F706D81C7010E9415070E94601431CEC7
:1021D00049814F706D81C7010E9465082ACE0F901A
:1021E0000F900F900F900F90DF91CF911F910F9153
:1021F000FF90EF90DF90BF90AF909F908F900895E9
:102200000F931F93CF93DF93EC018B819C81892BDC
:1022100029F08881998189238F3F29F4DF91CF911B
:102220001F910F910895CE010E942E078823B1F3CC
:10223000688179818A810E9411178C010E946B1636
:102240000E94DC14B801CE01DF91CF911F910F9154
:102250000C94B10E0E940B180E941C180E94DE17ED
:102260000E9435180E94801D0E948F1C90E080E023
:102270000E944B0C90E080E00C94610C0E94FA17D5
:102280000C942A110E940517282F892F82958F7090
:10229000903C80F48A30B0F4843020F4823090F4A2
:1022A00080E008958630E1F781E0203E88F0213F0C
:1022B000B9F70EC08C3011F08F3091F793FB88275F
:1022C00080F9089581E0203F39F018F4203E40F76E
:1022D0000895243F29F7FCCF0895CF93DF9300D0D2
:1022E00000D00F92CDB7DEB70F900F900F900F90E8
:1022F0000F90DF91CF910895CF93DF9300D000D05E
:1023000000D0CDB7DEB726960FB6F894DEBF0FBE6D
:10231000CDBFDF91CF9108951F93CF93DF93E091CD
:10232000970116E0809198018E1304C0DF91CF9140
:102330001F910895CE2FD0E01E9FF0011124E75683
:10234000FE4F4081518162817381848195810E9419
:102350007C11FE013196E770E5CF4091C9015091A3
:10236000CA016091CB017091CC018091CD01909117
:10237000CE010C947C111F93CF93DF938091CE01FB
:10238000807FC1F48091CB018823A1F080919701D7
:10239000C09198016091C9017091CA014091CC012E
:1023A0005091CD01D62FD723DA01A095B09516E034
:1023B000C81304C0DF91CF911F91089590E041159B
:1023C000510511F0DF3F31F401968770F1CF2A0FEC
:1023D0003B1F17C0189FF001199FF00D1124E756FD
:1023E000FE4F21812713F0CF20812613EDCF2281CC
:1023F0002111EACF238134812417350740F3241BB0
:10240000350B283C310500F72091CE012F7020615B
:102410002093CE0126E0289FF001299FF00D112482
:10242000E256FE4F80818F708061808389EC91E05D
:102430000E940011DF91CF911F910C948C119F92FB
:10244000AF92BF92CF92DF92EF92FF920F931F93C2
:10245000CF93DF93CDB7DEB72B970FB6F894DEBFDF
:102460000FBECDBF8C0185E0F801DE01179601900B
:102470000D928A95E1F7D8014C9111965C911197D4
:102480001296EC9012978091CC019091CD0100971B
:1024900009F46BC12091C9013091CA01632F6223F5
:1024A0006F3F09F462C11396CD90DC909090CB0100
:1024B000992009F4F8C0C816D90608F43FC0F601FF
:1024C000E81BF90BCF01FF24F394883C910508F039
:1024D000F12C89ECA82E81E0B82E8091CE01982FA6
:1024E000907FFF2009F4B7C0911180C0FE2C3513F6
:1024F0002AC0241328C0E11026C08F708061809309
:10250000CE010E94AD11C5010E9400118091CE0143
:10251000D80115968C938F2D2B960FB6F894DEBFAD
:102520000FBECDBFDF91CF911F910F91FF90EF9024
:10253000DF90CF90BF90AF909F9008958095909539
:102540008C0D9D1DC0CFCD2829F0842F85238F3F72
:1025500009F019C180E0B82FB170DB2EE09197012E
:102560002091980136E080FD1CC0EE20A1F2809100
:10257000CE0181608093CE01F12CCDCF8E2F90E0E3
:102580003E9FF0011124E756FE4F6181651306C09E
:102590006081641303C062816E11E7CFFC01319644
:1025A000E770E213EBCF4F8358878F8198850E94A5
:1025B0000517292F22952F70903260F0225F2F701F
:1025C000223078F49F7051F0F8019581907F31F4BA
:1025D000D12C0AC09F7011F08823D1F3805E88301F
:1025E000B8F3C8010E940011FD2C95CF351306C029
:1025F000241304C0D801EE2009F47BC04F83588710
:102600008F8198850E944211882309F4B8C0EE207A
:1026100009F4B5C08091CE01803270F02091C901DB
:102620003091CA013A8329831B82DD82CC828E835A
:10263000CE0101960E94001186E0F801A9ECB1E0FC
:1026400001900D928A95E1F70E94BB110E94AD1195
:10265000FF24F39460CF911113C07C2DDB86CA86D2
:102660006E2D8B850E946D1189EC91E00E94001106
:1026700086E0F50111928A95E9F70E94AD114BCFE2
:102680003513BCCF2413BACFE110B8CFD8011596BB
:102690008C93C8010E94001186E0F50111928A9581
:1026A000E9F7F92C38CFC816D90688F1B601681BAE
:1026B000790BCB01F12C883C910508F047C0FE2C2A
:1026C000EE2009F45CC0351330C024132EC0809175
:1026D000CE0180FD21C0982F907FF1F0D801159692
:1026E0008C931597903F39F0982F907F905F8F7063
:1026F000892B15968C93C8010E94001186E0F80181
:10270000A9ECB1E001900D928A95E1F7B6CF8095E2
:1027100090958C0D9D1DCECF86E0F801A9ECB1E01F
:1027200001900D928A95E1F7F6CE4F8358878F81FD
:1027300098850E94421181117FCF8091CE018160E6
:102740008093CE01C8010E940011E5CE7C2DDB866E
:10275000CA866E2D8B850E946D1186E0E9ECF1E052
:10276000DF011D928A95E9F788CFEE2041F04F8373
:1027700058878F8198850E94421181115DCFC801D1
:102780000E94001165CF81E08E25E5CE1F93CF9387
:10279000DF93CDB7DEB72C970FB6F894DEBF0FBE30
:1027A000CDBF4F83588769877A878B879C87CE01F7
:1027B00007960E941F12882369F08A859B85892BC2
:1027C00039F04F815885842F85238F3F09F071C0E0
:1027D00016E05FC086E0FE013796DE01119601909B
:1027E0000D928A95E1F78A859B85892B89F38885E7
:1027F0009F8189238F3F61F32091980130E0C901C7
:10280000019687709927409197014817190671F42E
:102810000E943E11109298011092970186E0E9EC17
:10282000F1E0DF011D928A95E9F7D2CF96E0929F01
:10283000D001939FB00D1124A756BE4FFE013196D3
:1028400001900D929A95E1F7809398010E948C1166
:10285000BFCF819FC001112487569E4F0E941F1237
:102860008823E9F0E09197011E9FF0011124E756BB
:10287000FE4F4081518162817381848195810E94E4
:102880007C118091970190E0019687709927809341
:10289000970180919701909198018913DACF2C9636
:1028A0000FB6F894DEBF0FBECDBFDF91CF911F9161
:1028B000089569857A858B859C850E947C1188CFD7
:1028C000EF92FF920F931F93CF93DF938C01892B8D
:1028D00089F0F12CEE24E394E8012196F80184912B
:1028E000843709F457C0A0F4823009F43EC048F49C
:1028F0008130D1F0DF91CF911F910F91FF90EF9038
:1029000008959CEF980F9037A8F70E94780D0AC0A1
:10291000853709F44CC09CE7980F903758F78F77AC
:102920000E94540E8E0116C00E5F1F4FFE0184914F
:1029300090E2980F983060F48770FE2D01C0FF0F71
:102940008A95EAF78F2F0E940E180E94351802C050
:102950000E94780D8F2D815008F4BECFEFE9FFE083
:102960003197F1F700C00000F6CF0E5F1F4FFE0158
:10297000849190E2980F983050F48770FE2D01C03A
:10298000FF0F8A95EAF78F2F0E941418DECF0E945E
:10299000540EE0CF0E5F1F4FFE01C491C150D0F224
:1029A0008FE99FE00197F1F700C00000F7CF0E5FBD
:1029B0001F4FFE01F490CECF089560930F027093E5
:1029C000100280931102909312020C942A11CF935B
:1029D000DF9300D000D0CDB7DEB769837A838B83D5
:1029E0009C8380910F0290911002A0911102B091EE
:1029F000120229813A814B815C81822B932BA42B7B
:102A0000B52B80930F0290931002A0931102B09304
:102A100012020F900F900F900F90DF91CF910C94B6
:102A20002A11CF93DF9300D000D0CDB7DEB76983F2
:102A30007A838B839C8380910F0290911002A091E6
:102A40001102B091120229813A814B815C8182236B
:102A50009323A423B52380930F0290931002A09395
:102A60001102B09312020F900F900F900F90DF9110
:102A7000CF910C942A11CF93DF9300D000D0CDB723
:102A8000DEB769837A838B839C8380910F02909158
:102A90001002A0911102B091120229813A814B815A
:102AA0005C8182279327A427B52780930F029093F8
:102AB0001002A0931102B09312020F900F900F908A
:102AC0000F90DF91CF910C942A1110920B0210926B
:102AD0000C0210920D0210920E020C942A1141E089
:102AE00050E060E070E004C0440F551F661F771F80
:102AF0008A95D2F740930B0250930C0260930D021B
:102B000070930E020C942A11282F81E090E0A0E02F
:102B1000B0E004C0880F991FAA1FBB1F2A95D2F7E7
:102B200040910B0250910C0260910D0270910E02C7
:102B3000842B952BA62BB72B80930B0290930C0222
:102B4000A0930D02B0930E020C942A1141E050E0C4
:102B500060E070E004C0440F551F661F771F8A9520
:102B6000D2F7409550956095709580910B029091A9
:102B70000C02A0910D02B0910E0284239523A6238E
:102B8000B72380930B0290930C02A0930D02B09395
:102B90000E020C942A11282F81E090E0A0E0B0E012
:102BA00004C0880F991FAA1FBB1F2A95D2F7409116
:102BB0000B0250910C0260910D0270910E0284275D
:102BC0009527A627B72780930B0290930C02A0931A
:102BD0000D02B0930E020C942A11CF93DF9300D014
:102BE00000D0CDB7DEB769837A838B839C838091D5
:102BF0000B0290910C02A0910D02B0910E0229815E
:102C00003A814B815C81822B932BA42BB52B809333
:102C10000B0290930C02A0930D02B0930E020F9042
:102C20000F900F900F90DF91CF910C942A11CF93BA
:102C3000DF9300D000D0CDB7DEB769837A838B8372
:102C40009C8380910B0290910C02A0910D02B09197
:102C50000E0229813A814B815C8182239323A42334
:102C6000B52380930B0290930C02A0930D02B093B6
:102C70000E020F900F900F900F90DF91CF910C9458
:102C80002A11CF93DF9300D000D0CDB7DEB7698390
:102C90007A838B839C8380910B0290910C02A0918C
:102CA0000D02B0910E0229813A814B815C8182270D
:102CB0009327A427B52780930B0290930C02A0932F
:102CC0000D02B0930E020F900F900F900F90DF91B6
:102CD000CF910C942A110895E82F22E1929FE00DE4
:102CE00011248E2F877041E001C0440F8A95EAF7C6
:102CF000E695E695E69585E0E89FF0011124E1531D
:102D0000FE4F30E020E070E05191DF011197CB01E0
:102D1000022E02C0969587950A94E2F781708195FC
:102D20008527842385278C932F5F3F4F25303105DE
:102D300059F70895E82F22E1929FE00D11249E2F6C
:102D40009770E695E695E69585E0E89FF0011124F9
:102D5000E153FE4F50E040E080E0219130E0092E49
:102D600002C0369527950A94E2F721703327042E86
:102D700001C0220F0A94EAF7822B4F5F5F4F453064
:102D8000510559F70895BF92CF92DF92EF92FF92CB
:102D90000F931F93CF93DF938C01C0900B02D090C1
:102DA0000C02E0900D02F0900E0280910F029091C3
:102DB0001002A0911102B0911202C82AD92AEA2A5F
:102DC000FB2ACFE1D0E0BC2ED701C6010C2E04C0F7
:102DD000B695A795979587950A94D2F780FD0EC072
:102DE000219788F7B12C8B2DDF91CF911F910F91F7
:102DF000FF90EF90DF90CF90BF900895B8018C2F97
:102E00000E948208019761F3EECFCF93DF93D82F12
:102E1000C92F0E94C3166D2F7C2FDF91CF910C9488
:102E200082081F93CF93DF93162FD72F909196018F
:102E3000992339F0862F972FDF91CF911F910C9412
:102E40000517882391F0862F972F0E94C316C82F4D
:102E5000682F812F9D2F0E946C16612F7D2F8C2F44
:102E6000DF91CF911F910C948208862F972F0E949B
:102E70009A16C82FF2CF8091130285958595859576
:102E80000895809113028770089598E0899F9001BA
:102E90001124622B609313020C94841590911302F9
:102EA0008095892380931302282F277061F4282F9F
:102EB000082E000C330B9217130629F08595859583
:102EC00085950C94A615089590911302977081E052
:102ED00009F480E00895909112019923E1F0909116
:102EE000690297FF18C0E82FE695E695E695EF3161
:102EF00039F12091000130910101E20FF32FF11D12
:102F0000877021E030E001C0220F8A95EAF78181C5
:102F1000822B818308952091000130910101F901F4
:102F200032969FEF40E05191851751F09F3F19F481
:102F3000511101C0942F4F5F4E31A9F79F3F09F403
:102F40000895290F311D97FD3A95F901828308955F
:102F500090911201992301F19091690297FF1CC091
:102F6000E82FE695E695E695EF3139F120910001DD
:102F700030910101E20FF32FF11D877021E030E065
:102F8000A90102C0440F551F8A95E2F7CA01809536
:102F9000918189238183089520910001309101015D
:102FA000F9013296205E3F4F9191891303C0DF01F2
:102FB00011971C92E217F307B9F7089581E090E0AA
:102FC000E0910001F0910101E80FF91F10820196D4
:102FD00080329105A9F7089590913702982B90932C
:102FE00037020895982F9095809137028923809316
:102FF0003702089510923702089590913602982B67
:10300000909336020895982F9095809136028923E7
:1030100080933602089510923602089590913502F9
:10302000982B909335020895982F909580913502B2
:103030008923809335020895109235020895809374
:103040001402089510921402089520910001309105
:103050000101F9013196205E3F4F80E0919191117D
:103060008F5FE217F307D1F70895E0910001F09127
:103070000101809137028083E0910001F09101010C
:10308000808190913602892B8083E0910001F0913C
:103090000101808190913502892B808390911402E7
:1030A000992361F0E0910001F09101018081892B69
:1030B00080830E94251881111092140280910001D2
:1030C000909101010C94350C6DEE7EEF90E080E064
:1030D0000E94EB2560E082E090E00E94D92560E04C
:1030E00083E090E00E94D92560E084E090E00E94B7
:1030F000D92560E085E090E00C94D92590E080E04F
:103100000E94D3259C0181E02D3E3E4F09F080E0D6
:10311000089582E090E00C94CB25682F82E090E047
:103120000C94D92583E090E00C94CB25682F83E0A4
:1031300090E00C94D92584E090E00C94CB25682F86
:1031400084E090E00C94D92580916F02843039F1AD
:103150001092390288E190E020E40FB6F894A89527
:10316000809360000FBE2093600080E00E9463089F
:1031700083B7817F846083BF83B7816083BF789486
:10318000889583B78E7F83BF0FB6F894A8958091FA
:103190006000886180936000109260000FBE089507
:1031A00008950895CF93DF9300D000D00F92CDB74C
:1031B000DEB70E94D0180E94110B0E94D1181D8208
:1031C0008D810E940A0C672B682B692B71F48D810D
:1031D0008F5F8D838530A1F780E00F900F900F9067
:1031E0000F900F90DF91CF91089581E0F6CF0E946C
:1031F0003E110E94290C0C9463081F921FB61F9267
:1032000011248F939F93AF93BF93809139028111C3
:1032100013C08091650290916602A0916702B091FF
:1032200068024196A11DB11D8093650290936602CC
:10323000A0936702B0936802BF91AF919F918F9165
:103240001F901FBE1F90189582E084BD93E095BD2E
:103250009AEF97BD80936E0008952FB7F8948091F0
:10326000650290916602A0916702B09168022FBF3B
:103270000895CF92DF92EF92FF929C014FB7F8949E
:103280008091650290916602A0916702B0916802F8
:103290004FBF6C017D01EE24FF24A90170E060E0C6
:1032A000C416D506E606F70638F0821B930BFF908E
:1032B000EF90DF90CF9008950197F7CF1F921FB640
:1032C0001F9211248F939F93AF93BF9380916502B8
:1032D00090916602A0916702B09168020196A11DCB
:1032E000B11D8093650290936602A0936702B0932C
:1032F0006802BF91AF919F918F911F901FBE1F9049
:1033000018950E947421F8942FEF87EA91E62150D6
:1033100080409040E1F700C0000087E090EBDC01C6
:103320008093780290937902A0937A02B0937B0203
:1033300088E19CE00FB6F894A895809360000FBEDA
:1033400090936000FFCFAF92BF92CF92DF92EF9247
:10335000FF920F931F93CF93C0E0A82EB12C8C2F18
:103360000E940A0C6B017C0110E000E0D701C6014D
:10337000002E04C0B695A795979587950A94D2F725
:1033800080FF13C0602F7C2F80E00E946608A81683
:10339000B90659F481E0CF911F910F91FF90EF9002
:1033A000DF90CF90BF90AF9008950F5F1F4F023115
:1033B0001105E1F6CF5FC53091F680E0ECCFCF93F9
:1033C000C82F8CE20E94A319882321F08C2FCF9163
:1033D0000C94A31980E0CF910895CF93DF9300D090
:1033E00000D0CDB7DEB70E947E18811102C00E94C6
:1033F000641895E6998308C00E94110B8FE39CE93D
:103400000197F1F700C00000A981A150A983A11183
:10341000F3CF89E20E94DF19811110C18AE20E9474
:10342000DF1981110E94641885E00E94DF19811163
:103430000E9481190E9489188093380287E00E94B7
:10344000DF19882371F08BE10E94DF19882309F4CA
:10345000D1C090913802892F8D7F91FF8260809337
:103460003802809138020E948D180E949B1890E0CB
:1034700090936A028093690280EE0E94DF1988238C
:1034800041F090916902892F8E7F90FF8160809337
:10349000690289E30E94DF19882341F09091690253
:1034A000892F8D7F91FF82608093690282EE0E9456
:1034B000DF19882341F090916902892F8B7F92FF59
:1034C00084608093690286EE0E94DF19882341F0B0
:1034D00090916902892F877F93FF886080936902AA
:1034E00083EE0E94DF19882341F090916902892FB1
:1034F0008F7E94FF80618093690285E30E94DF19CB
:10350000882341F090916902892F8F7D95FF806219
:103510008093690281E30E94DF19882341F0909132
:103520006902892F8F7B96FF80648093690281E115
:103530000E94DF19882341F090916902892F97FB3F
:1035400087F9805880936902809169020E949F18D0
:1035500087E20E94DF1989838EE10E94DF198823A8
:1035600019F0B981B260B9838FE10E94DF19882315
:1035700019F029812460298380E20E94DF198823C1
:1035800019F039813860398381E20E94DF1988237C
:1035900019F049814061498382E20E94DF19882342
:1035A00019F059815062598383E20E94DF19882300
:1035B00019F089818064898384E20E94DF1988235D
:1035C000B1F199819068998389810E949618398117
:1035D000232F30E050E040E029833A834B835C8323
:1035E000CA01B9010F900F900F900F90DF91CF910A
:1035F0000C94DD148EE00E94DF19882339F090913D
:103600003802892F8B7F92FF846029CF80E10E944E
:10361000DF1990913802882329F0892F877F93FF43
:1036200088601DCF892F8E7F90FF816018CFA98180
:10363000A111CACF0E949218282FCBCF0F900F90C4
:103640000F900F90DF91CF91089580913C0280FF01
:1036500012C06091050185E0689FB0011124759545
:1036600067957595679560387105A8F561157105C1
:10367000A1F1862F089581FF09C06091050185E0C1
:10368000689FB001112475956795EDCF6091050194
:1036900082FD0AC080913D028823D1F090910401FF
:1036A00060910501891728F085E0689FB001112419
:1036B000DACF869FB001112485E0869F9001879F15
:1036C000300D1124692F70E0C9010E949D25CBCFD8
:1036D00065E070E0CECF8FE7089581E00895809196
:1036E0003C0280FF0CC06091030170E07595679506
:1036F000759567956115710549F1862F089581FFCC
:1037000006C06091030170E075956795F3CF6091F5
:10371000030182FD0BC090913D029923A1F06091BD
:10372000020180910301961738F0682F70E060382D
:10373000710500F38FE70895899FC001112470E09F
:103740000E949D25F4CF61E070E0D7CF81E008951D
:10375000803F31F40E94251B81958093400208959B
:10376000813F19F40E94251BF8CF823F31F40E945B
:10377000251B819580933F020895833F19F40E9491
:10378000251BF8CF893F29F40E946F1B80934102CB
:1037900008958A3F21F40E946F1B8195F7CF8B3FDC
:1037A00031F40E946F1B81958093420208958C3FF3
:1037B00019F40E946F1BF8CF843F31F480913E02D0
:1037C000816080933E020895853F21F480913E02FE
:1037D0008260F7CF863F21F480913E028460F1CF72
:1037E000873F21F480913E028860EBCF883F21F42F
:1037F00080913E028061E5CF8D3F31F480913C02A3
:10380000816080933C0208958E3F21F480913C02B8
:103810008260F7CF8F3FB9F780913C028460F1CF8F
:1038200090913F02803F41F48091400287FD1092C9
:103830004002992371F00895813F29F4809140025C
:103840001816ACF3F6CF823F81F497FFF2CF1092B7
:103850003F028091400290914102892B9091420257
:10386000892B49F710923D020895833F19F41916E8
:1038700074F3DFCF893F39F4809141021816CCF6FA
:1038800010924102D6CF8A3F29F48091410287FFEE
:10389000D0CFF6CF8B3F39F48091420287FFC9CF5A
:1038A00010924202C6CF8C3F29F480914202181632
:1038B000BCF3BFCF843F31F480913E028E7F809372
:1038C0003E02B7CF853F21F480913E028D7FF7CF36
:1038D000863F21F480913E028B7FF1CF873F21F418
:1038E00080913E02877FEBCF883F21F480913E029A
:1038F0008F7EE5CF8D3F31F480913C028E7F8093A7
:103900003C0297CF8E3F21F480913C028D7FF7CF10
:103910008F3F09F08ECF80913C028B7FF0CF8EE3FA
:1039200092E00E94400C0E942D1990933B028093DC
:103930003A0208951F93CF93DF9300D000D000D0B8
:10394000CDB7DEB780913A0290913B020E943919BF
:10395000AC0180913D022091060130E0811106C04A
:10396000209107019AE0299F9001112442175307E3
:1039700088F020913F02A0914002A983109141025A
:10398000B0914202BE8321110FC09A2F912B9B2B25
:1039900009F0B2C026960FB6F894DEBF0FBECDBFB9
:1039A000DF91CF911F9108958F3F19F08F5F809322
:1039B0003D02121624F40E94251B80933F02809141
:1039C0003F0287FF05C00E94251B819580933F021F
:1039D0002981121624F40E94251B809340028091B5
:1039E000400287FF05C00E94251B819580934002FD
:1039F00080913F02882309F455C0309140023D83F5
:103A0000332309F44FC0282F880F330B440B550B79
:103A100029833A834B835C83CA01B9010E94A424A1
:103A200023E333E343E35FE369837A838B839C83FC
:103A300069817A818B819C810E94082569837A83C0
:103A40008B839C8369817A818B819C810E946C2409
:103A500060933F028D81082E000C990BAA0BBB0BC3
:103A600089839A83AB83BC83BC01CD010E94A424CB
:103A700023E333E343E35FE369837A838B839C83AC
:103A800069817A818B819C810E94082569837A8370
:103A90008B839C8369817A818B819C810E946C24B9
:103AA00060934002111624F40E946F1B8093410220
:103AB0008091410287FF05C00E946F1B8195809312
:103AC00041029E81191624F40E946F1B80934202CA
:103AD0008091420287FF05C00E946F1B81958093F1
:103AE000420226960FB6F894DEBF0FBECDBFDF911F
:103AF000CF911F910C948F1C8F3F09F057CF68CF47
:103B000085E0EEE3F2E0DF011D928A95E9F710927D
:103B10003D0210923C020895809163020895CF9374
:103B2000DF9300D00F92CDB7DEB720916F02243023
:103B300019F523E029838A839B832093E9008FEF83
:103B40009091E800815095FD06C095ED9A95F1F7AA
:103B500000008111F5CF8091E80085FF0DC050E095
:103B600040E063E070E0CE0101960E94EC1F80917E
:103B7000E8008E778093E8000F900F900F90DF9110
:103B8000CF910895CF93DF9300D00F92CDB7DEB7DA
:103B90009C0180916F02843031F582E08983205846
:103BA00031093B832A8383E08093E9008FEF909172
:103BB000E800815095FD06C095ED9A95F1F700005B
:103BC0008111F5CF8091E80085FF0DC050E040E005
:103BD00063E070E0CE0101960E94EC1F8091E80046
:103BE0008E778093E8000F900F900F90DF91CF9128
:103BF000089520916F022430F1F422E02093E9002F
:103C00002FEF3091E800215035FD06C035ED3A9593
:103C1000F1F700002111F5CF2091E80025FF0BC03E
:103C200050E040E065E070E00E94EC1F8091E80009
:103C30008E778093E8000895CF93DF93D82FC92F14
:103C400080916F028430F1F4909112019923E9F090
:103C50009091690297FF19C08093E9008FEF9091CE
:103C6000E800815095FD06C095E19A95F1F70000B6
:103C70008111F5CF8091E80050E040E060E270E013
:103C800085FD1AC0DF91CF91089581E08093E9000E
:103C90008FEF9091E800815095FD06C095ED9A95C3
:103CA000F1F700008111F5CF8091E80085FFEACFA0
:103CB00050E040E068E070E08D2F9C2F0E94EC1FE8
:103CC0008091E8008E778093E80080E2ED2FFC2F52
:103CD000A3E4B2E001900D928A95E1F7D3CF8091F1
:103CE0006E02811109C00E9474210E94D12180912D
:103CF000E20084608093E200089510926E020895BD
:103D0000089508950C94F71842E061EC81E00E9458
:103D1000F02042E061EC82E00E94F02042E061ECA1
:103D200083E00E94F02042E261EC84E00C94F020F9
:103D300080917102893089F148F4823009F494C08D
:103D4000833009F44FC0813041F008958A3009F47E
:103D50007BC08B3009F461C0089580917002813A74
:103D600009F03FC08091E800877F8093E800809150
:103D7000740290917502892B61F460E283E492E011
:103D800070E00E943B208091E8008B778093E800F0
:103D9000089560E090E080E0F3CF8091700281327E
:103DA00001F58091740290917502009711F00397CC
:103DB000C1F48091E800877F8093E8008091E8005B
:103DC00082FF0BC08091F100809363028091E80034
:103DD0008B778093E8000C94242180916F028111ED
:103DE000EDCF089580917002813AD9F780917402E5
:103DF00090917502892BA9F78091E800877F8093C5
:103E0000E8008091E80080FFFCCF80911201809350
:103E1000F1008091E8008E77DCCF809170028132D2
:103E200001F78091740290917502892BD1F68091EF
:103E3000E800877F8093E8000E942421809172022D
:103E4000809312010C943E1180917002813249F6E8
:103E50008091E800877F8093E8000E942421809170
:103E6000730280936402089580917002813A09F090
:103E7000B8CF8091E800877F8093E8008091E800C8
:103E800080FFFCCF80916402C2CF84B7877F84BF5C
:103E90000FB6F894A89580916000886180936000C7
:103EA000109260000FBE80E8809361001092610064
:103EB0000E94780C0E9474210E94D1218091E2001E
:103EC00084608093E20078940E9451240E947A0CCE
:103ED00088E091E00E94240C80916F02853019F0F7
:103EE0000E94800CF9CF0E94A41880916D02882353
:103EF00099F30E94D218882379F30E94D61FECCF41
:103F00009C01DA01892F992783309105C1F068F46B
:103F10008130910509F445C0029761F48DE690E087
:103F20002CE13CE02D933C93089581329105E1F022
:103F3000829739F190E080E030E020E0F3CFC901D2
:103F40009927213059F08230910559F0E8E1FCE0E1
:103F5000892B81F7849190E09F01E4CFE0E0FCE0C1
:103F6000F9CFECEEFBE0F6CF643020F7E62FF0E07F
:103F7000EE0FFF1FEA5CFE4F2081318189E090E067
:103F8000D1CF6430B8F670E0FB01EE0FFF1FE25DA9
:103F9000FE4F20813181665D7E4FFB01808190E084
:103FA000C1CF82E190E029E83CE0BCCF80E189BD4F
:103FB00082E189BD09B400FEFDCF8091D8008F7DDC
:103FC0008093D8008091E00082608093E00080912F
:103FD000E00081FDFCCF0895AF92BF92CF92DF92B7
:103FE000FF920F931F93CF93DF936C01EB018A0134
:103FF0000E944321F82E811123C00115110539F0CB
:10400000F80180819181C81BD90BC80ED91EB12C33
:10401000A12C2097A9F08091E80085FD22C0809115
:10402000E8008E778093E80001151105A1F0F801F2
:1040300080819181A80EB91EB182A08285E0F82E00
:104040008F2DDF91CF911F910F91FF90DF90CF9037
:10405000BF90AF9008950E9443218823D1F2F82E9B
:10406000EFCFF60181916F018093F1002197FFEF6F
:10407000AF1ABF0ACECFFC01CB012091760230915E
:1040800077022617370790F0009729F42091E8006F
:104090002E772093E80040E0009751F4411108C0CA
:1040A0008091E80082FF31C080E00895C901F3CF1C
:1040B00020916F022223A9F12530A9F12091E80077
:1040C00023FD2DC02091E80022FDEACF2091E800D9
:1040D00020FFE2CF3091F3002091F200009719F019
:1040E0002830310558F041E02830310509F040E032
:1040F0002091E8002E772093E800CECF41914093A5
:10410000F10001972F5F3F4FE9CF80916F02882325
:1041100041F0853041F08091E80083FFC1CF81E01C
:10412000089582E0089583E00895FC01CB01209179
:104130007602309177022617370790F0009729F41E
:104140002091E8002E772093E80040E0009751F49A
:10415000411108C08091E80082FF32C080E00895DC
:10416000C901F3CF20916F022223B1F12530B1F1C3
:104170002091E80023FD2EC02091E80022FDEACF27
:104180002091E80020FFE2CF3091F3002091F2006F
:10419000009719F02830310558F041E028303105FA
:1041A00009F040E02091E8002E772093E800CECF80
:1041B00044914093F100319601972F5F3F4FE8CF34
:1041C00080916F02882341F0853041F08091E800B2
:1041D00083FFC0CF81E0089582E0089583E00895D1
:1041E000982F973028F08F708093E90081E0089530
:1041F0009093E900242F762F50E0981731F07091BA
:10420000EC002091ED005091F00021FD02C09F5F75
:10421000E8CF3091EB003E7F3093EB003091ED0022
:104220003D7F3093ED003091EB0031603093EB0037
:104230007093EC002093ED005093F0002091EE007D
:1042400027FDE5CF80E008958091700287FF13C0BD
:104250008091E80082FF06C08091E8008B77809310
:10426000E80004C080916F028111F2CF089580911F
:104270006F028823D9F38091E80080FFF8CF809106
:10428000E8008E77ECCF2091E4003091E50095E6D0
:10429000A9012091EC00822F817020FF06C080913F
:1042A000E80080FF06C080E008952091E80022FD2C
:1042B0001AC080916F02882389F0853089F080913F
:1042C000EB0085FD0FC02091E4003091E50042171E
:1042D0005307F9F29150E1F684E0089582E00895E1
:1042E00083E0089581E008950E94E2210E94EA217E
:1042F000E0EEF0E0808181608083E8EDF0E0808195
:104300008F77808319BCA7EDB0E08C918E7F8C9362
:1043100080818F7E808310926E0208950F931F9389
:10432000CF93DF930E94E2210E94EA21C8EDD0E002
:1043300088818F77888388818068888388818F7D52
:10434000888319BC10926F0210926B0210926D025A
:1043500010926C0200EE10E0F80180818B7F808368
:1043600088818160888342E060E080E00E94F020E4
:10437000E1EEF0E080818E7F8083E2EEF0E08081EC
:1043800081608083808188608083F80180818E7F56
:104390008083888180618883DF91CF911F910F9105
:1043A0000895E8EDF0E080818F7E8083E7EDF0E016
:1043B00080818160808384E082BF81E080936E028F
:1043C0000C948E21E8EDF0E080818E7F8083109246
:1043D000E20008951092DA001092E10008951F9211
:1043E0000F920FB60F9211242F933F934F935F9329
:1043F0006F937F938F939F93AF93BF93EF93FF93AD
:104400008091E10082FF0BC08091E20082FF07C033
:104410008091E1008B7F8093E1000E945024809185
:10442000DA0080FF19C08091D80080FF15C080910C
:10443000DA008E7F8093DA008091D90080FF94C0EB
:1044400080E189BD82E189BD09B400FEFDCF81E034
:1044500080936F020E946F1E8091E10080FF19C05F
:104460008091E20080FF15C08091E2008E7F8093F2
:10447000E2008091E20080618093E2008091D800A8
:1044800080628093D80019BC85E080936F020E94FF
:10449000811E8091E10084FF29C08091E20084FFA9
:1044A00025C080E189BD82E189BD09B400FEFDCF50
:1044B0008091D8008F7D8093D8008091E1008F7E1D
:1044C0008093E1008091E2008F7E8093E2008091F2
:1044D000E20081608093E20080916B02882309F4FE
:1044E00049C084E080936F020E94821E8091E100A7
:1044F00083FF29C08091E20083FF25C08091E10005
:10450000877F8093E10082E080936F0210926B02BC
:104510008091E1008E7F8093E1008091E2008E7FA8
:104520008093E2008091E20080618093E20042E0AB
:1045300060E080E00E94F0208091F000886080932D
:10454000F0000E94801EFF91EF91BF91AF919F916B
:104550008F917F916F915F914F913F912F910F902C
:104560000FBE0F901F90189519BC10926F020E94F9
:104570007D1E72CF8091E30087FD02C081E0B2CF43
:1045800083E0B0CF1F920F920FB60F9211242F939A
:104590003F934F935F936F937F938F939F93AF93CB
:1045A000BF93CF93DF93EF93FF93D091E900DF7038
:1045B0008091EC00C82FC17080FDC0E81092E90026
:1045C0008091F000877F8093F00078940E9406230A
:1045D0001092E9008091F00088608093F000CD2B6C
:1045E000CF70C093E900FF91EF91DF91CF91BF9120
:1045F000AF919F918F917F916F915F914F913F917B
:104600002F910F900FBE0F901F9018951F93CF936F
:10461000DF93CDB7DEB7AA970FB6F894DEBF0FBE13
:10462000CDBF80E792E0FC0101962091F10020834C
:1046300022E088379207B9F70E94981E8091E8001F
:1046400083FF16C180917002909171029A3008F038
:104650000FC1E92FF0E0EB5DF94D0C94B1258038E6
:1046600081F0823809F004C1809174028F708093C8
:10467000E9008091EB0085FB882780F91092E90022
:1046800006C080916C0290916D02911182609091B0
:10469000E800977F9093E8008093F1001092F1007A
:1046A0008091E8008E77E0C0882309F4CEC0823084
:1046B00009F0DEC0809172028111D1C08091740234
:1046C0008F7009F4D5C08093E9002091EB0020FFA2
:1046D000C6C0933031F48091EB0080628093EB0090
:1046E000BEC09091EB0090619093EB0021E030E030
:1046F00001C0220F8A95EAF72093EA001092EA009F
:104700008091EB008860EACF8111B2C010917202F3
:104710001F778091E3008078812B8093E300809164
:10472000E800877F8093E8000E9424218091E800C0
:1047300080FFFCCF8091E30080688093E30082E0FB
:10474000111183E080936F0293C08058823008F08B
:104750008FC080917202909173028C3D23E092078A
:10476000A1F583E08A838AE289834FB7F894DE015A
:10477000139620E03EE051E2E32FF0E05093570023
:10478000E49120FF03C0E295EF703F5FEF708E2F42
:1047900090E0EA30C0F0C7968D939D932F5F24314F
:1047A00059F74FBF8091E800877F8093E8006AE265
:1047B00070E0CE0101960E943B208091E8008B774B
:1047C0008093E80055C0C096E7CFAE014F5F5F4FC2
:1047D000609174020E94801FBC01892B09F448C0BB
:1047E0008091E800877F8093E80089819A810E9408
:1047F0009520E3CF8038E1F58091E800877F8093B2
:10480000E80080916B028093F1004ACF811130C0A3
:1048100090917202923060F58091E800877F8093DA
:10482000E80090936B020E94242180916B02882300
:1048300011F084E005C08091E30087FDFACF81E0AC
:1048400080936F020E94841E13C080917202813097
:1048500079F481E0933009F080E080936D0210924A
:10486000E9008091E800877F8093E8000E9424217E
:104870008091E80083FF0AC08091E800877F8093E1
:10488000E8008091EB0080628093EB00AA960FB65F
:10489000F894DEBF0FBECDBFDF91CF911F91089579
:1048A0000895CF9380916F028823A1F0C091E90011
:1048B000CF709091EC00892F817090FD80E8C82B1B
:1048C0001092E9008091E80083FD0E940623CF70DA
:1048D000C093E900CF9108950E9473246894B111A8
:1048E0000C94022508950E94E72488F09F5798F0C1
:1048F000B92F9927B751B0F0E1F0660F771F881FE5
:10490000991F1AF0BA95C9F714C0B13091F00E94FE
:104910000125B1E008950C940125672F782F882791
:10492000B85F39F0B93FCCF3869577956795B39525
:10493000D9F73EF490958095709561957F4F8F4F94
:104940009F4F0895E89409C097FB3EF49095809599
:10495000709561957F4F8F4F9F4F9923A9F0F92F45
:1049600096E9BB279395F695879577956795B795C3
:10497000F111F8CFFAF4BB0F11F460FF1BC06F5FA9
:104980007F4F8F4F9F4F16C0882311F096E911C0BB
:10499000772321F09EE8872F762F05C0662371F0DC
:1049A00096E8862F70E060E02AF09A95660F771FF0
:1049B000881FDAF7880F9695879597F9089557FD20
:1049C0009058440F551F59F05F3F71F04795880F7D
:1049D00097FB991F61F09F3F79F087950895121614
:1049E00013061406551FF2CF4695F1DF08C01616C0
:1049F00017061806991FF1CF869571056105089471
:104A00000895E894BB2766277727CB0197F9089587
:104A10000E941B250C948C250E947E2538F00E9454
:104A2000852520F0952311F00C9475250C947B2599
:104A300011240C9402250E94DF2470F3959FC1F38A
:104A4000950F50E0551F629FF001729FBB27F00D3C
:104A5000B11D639FAA27F00DB11DAA1F649F662791
:104A6000B00DA11D661F829F2227B00DA11D621FE0
:104A7000739FB00DA11D621F839FA00D611D221F9A
:104A8000749F3327A00D611D231F849F600D211D7E
:104A9000822F762F6A2F11249F5750409AF0F1F001
:104AA00088234AF0EE0FFF1FBB1F661F771F881F6A
:104AB00091505040A9F79E3F510580F00C94752508
:104AC0000C9402255F3FE4F3983ED4F386957795E6
:104AD0006795B795F795E7959F5FC1F7FE2B880F10
:104AE000911D9695879597F9089597F99F6780E8A6
:104AF00070E060E008959FEF80EC089500240A9430
:104B00001616170618060906089500240A941216A8
:104B10001306140605060895092E0394000C11F4DB
:104B2000882352F0BB0F40F4BF2B11F460FF04C088
:104B30006F5F7F4F8F4F9F4F089597FB072E16F49F
:104B4000009407D077FD09D00E94B72507FC05D057
:104B50003EF4909581959F4F0895709561957F4F94
:104B60000895EE0FFF1F0590F491E02D0994AA1B04
:104B7000BB1B51E107C0AA1FBB1FA617B70710F048
:104B8000A61BB70B881F991F5A95A9F7809590957A
:104B9000BC01CD010895F999FECF92BD81BDF89A6F
:104BA000992780B50895A8E1B0E042E050E00C9468
:104BB000F325262FF999FECF92BD81BDF89A019772
:104BC00000B4021639F01FBA20BD0FB6F894FA9A55
:104BD000F99A0FBE08950196272F0E94DA250C94AA
:104BE000D925DC01CB01FC01F999FECF06C0F2BD4D
:104BF000E1BDF89A319600B40D9241505040B8F79B
:104C00000895F894FFCFCE07DA07DE07E207E6073C
:104C1000EA07EE07F207F607FA07FE07020806089A
:104C20000A080E08120816081A08E90EE90E410FC4
:104C3000410F850FA10F190F190FAC0F190F741029
:104C40007410DF10190F190FE8102F235423382484
:0E4C5000542338248423A5233824FA23062471
:104C5E0015022808140A321E8C1D1C1EF91DC21DB9
:104C6E008F1D01909192939594969734353666F7F1
:104C7E00F6F5F4F1F0C630313233404D3639570D7A
:0E4C8E000A0DD40C9B0C2E0C470C600C790CFC
:00000001FF
